:020000040800F2
:1000000000800120F11200083D1300083D13000894
:100010003D1300083D1300083D13000800000000D8
:100020000000000000000000000000003D13000878
:100030003D130008000000003D1300083D130008B8
:100040003D1300083D1300083D1300083D13000850
:100050003D1300083D1300083D1300083D13000840
:100060003D1300083D1300083D1300083D13000830
:100070003D1300083D1300083D1300083D13000820
:100080003D1300083D1300083D1300080000000068
:100090000000000000000000000000003D13000808
:1000A0003D1300083D1300083D1300083D130008F0
:1000B0003D1300083D1300083D1300083D130008E0
:1000C0003D1300083D1300083D1300083D130008D0
:1000D0003D1300083D1300083D1300080000000018
:1000E0003D1300083D1300083D1300080000000008
:1000F0000000000000000000000000003D130008A8
:10010000000000003D1300083D1300083D130008E7
:1001100000000000000000000000000000000000DF
:100120003D1300083D1300083D1300083D1300086F
:100130003D13000800000000000000000000000067
:100140000000000000000000000000003D13000857
:100150003D1300083D1300083D1300083D1300083F
:100160003D1300083D1300080000000000000000DF
:10017000000000000000000000000000000000007F
:10018000000000003D130008000000000000000017
:100190003D13000810B5054C237833B9044B13B157
:1001A0000448AFF300800123237010BD680C0020C9
:1001B0000000000018DD00080C4B43B10C480D494D
:1001C00010B5AFF300800C48036823B910BD0A488E
:1001D000036833B97047094B002BF7D0BDE81040D6
:1001E0001847064B002BF5D0184700BF0000000051
:1001F00018DD00086C0C0020600C002000000000DE
:10020000154B002B08BF134B9D46A3F5803A0021E8
:100210008B460F461348144A121A05F0D3FE0F4BB3
:10022000002B00D098470E4B002B00D098470020A1
:10023000002104000D000D48002802D00C4800F0F9
:1002400013FF05F067FA2000290001F048F800F0DC
:1002500001FF00BF00000800008001200000000036
:10026000CD120008680C00208410002069100008DE
:100270000000000008B505480CF0E6F804480CF052
:10028000E1F804480CF0D4F8002008BD9CCF000829
:10029000A8CF0008C0CF000882B001900091009B59
:1002A000184602B0704700BF704700BF704700B5E6
:1002B00083B00190019800F06FFF019B184603B0D6
:1002C0005DF804FB82B0019000BF02B0704782B0BD
:1002D000019000BF02B0704700B583B00190054A9D
:1002E000019B1A60019800F05DFF019B184603B066
:1002F0005DF804FB80D3000800B583B0019001983D
:10030000FFF7EAFF019800F03DFF019B184603B09C
:100310005DF804FB82B001900023184602B07047DC
:1003200000B583B00190019B1B6810331B6801224C
:100330000021019898470346184603B05DF804FB76
:1003400000B583B00190019B1B6810331B6800222D
:1003500000210198984700BF03B05DF804FB00B589
:1003600085B0039002910192039B1B6810331B68B8
:10037000019A0299039898470346184605B05DF81C
:1003800004FB00B583B00190019B1B6818331B6808
:10039000019898470346184603B05DF804FB00B582
:1003A00083B00190019B1B6828331B680198984714
:1003B0000346184603B05DF804FB82B001900B467B
:1003C0008DF803309DF80330002B01D0002301E0AD
:1003D0006FF01803184602B0704782B001900123F5
:1003E000184602B0704782B001900B46ADF802305B
:1003F0001123184602B0704782B00190009100BFEF
:1004000002B0704700B583B00190019800F0D0FEB3
:10041000034A019B1A60019B184603B05DF804FB78
:1004200080D3000800B585B00190134800F0C6FEE7
:1004300003461846FFF746FF00230393039B3F2B19
:100440000FD80E4A039B52F82320019B9A4204D1F5
:100450000A4A039B002142F82310039B01330393B4
:10046000ECE7054800F0AAFE03461846FFF72FFF09
:1004700000BF05B05DF804FB0C0D00209C010020BE
:1004800084B00390029101926FF01C03184604B0EF
:10049000704782B001906FF01503184602B07047A4
:1004A00082B001900123184602B0704782B00190DB
:1004B0000023184602B0704700B585B00390019341
:1004C0000B46ADF80A301346ADF80830039B1846CA
:1004D000FFF798FF0C4A039B1A600C4B1B68002B1C
:1004E0000CD1BDF90820BDF90A301946084801F0C1
:1004F000F9F80199064801F0F7F900E000BF039B05
:10050000184605B05DF804FB1CD100082C0D002036
:10051000C80F002000B587B0039002910192029BA2
:10052000049300230593059A019B9A420BD2049AE7
:10053000059B13441B781946054801F09DF8059B5F
:1005400001330593EFE7019B184607B05DF804FB04
:10055000C80F002000B587B0039002910192029B62
:100560000593019B002B01D1002307E0054801F012
:1005700065F80346DAB2059B1A700123184607B0E6
:100580005DF804FBC80F002000B585B001900B4654
:10059000ADF802300023ADF80E30BDF8023003F0A4
:1005A0000103002B07D0174801F0B8F90346002BD0
:1005B00001D0012300E00023002B05D0BDF80E3050
:1005C00043F00103ADF80E30BDF8023003F0100324
:1005D000002B07D00B4801F0CDF90346002B01D0CA
:1005E000012300E00023002B05D0BDF80E3043F0BE
:1005F0001003ADF80E30BDF90E30184605B05DF8A9
:1006000004FB00BFC80F002082B0019000231846F1
:1006100002B0704782B001900023184602B07047C4
:1006200008B5154B1B78BFF35B8FDBB203F00103FA
:10063000002B0CBF01230023DBB2002B19D00E4886
:1006400000F042FD0346002B14BF01230023DBB260
:10065000002B0ED04FF41653032202210748FFF758
:100660002BFF054800F066FD054A0649034800F0E7
:10067000E9FC024B184608BD180D0020140D00209F
:10068000980100203D12000800B585B00190019846
:10069000FFF7C0FF0390039B002B01D0039B0BE0EF
:1006A0000198FFF7B1FF0390039B002B01D0039B40
:1006B00002E0FFF7B5FF0346184605B05DF804FBFE
:1006C00000B585B00190019B3F2B01DD002315E0B3
:1006D0000C4A019B52F823300393039BB3F1FF3F75
:1006E0000BD1019B022B08DC0198FFF7CDFF039093
:1006F0000449019B039A41F82320039B184605B047
:100700005DF804FB9C01002000B583B001900091CE
:1007100004F0B4FA0246019B5B421360054A009B59
:10072000002142F823104FF0FF33184603B05DF864
:1007300004FB00BF9C01002084B00190019B039347
:10074000039B23F400430393039B184604B07047B4
:1007500000B583B01D4800F031FD03461846FFF791
:10076000B1FD03230193019B3F2B0ADC184A019B37
:1007700052F82330002B03D0019B01330193F2E7A1
:1007800000BF019B3F2B0EDD04F078FA02461823D0
:1007900013600E4800F012FD03461846FFF797FD60
:1007A0004FF0FF330DE00A4A019B4FF0FF3142F852
:1007B0002310064800F002FD03461846FFF787FDA8
:1007C000019B184603B05DF804FB00BF0C0D002030
:1007D0009C01002000B585B00190FFF7B9FF0390A0
:1007E000039B002B01DA039B0FE00A49039B019A4C
:1007F00041F82320084A039B134400221A70074A39
:10080000039B134400221A70039B184605B05DF841
:1008100004FB00BF9C0100208C0C0020CC0C0020AD
:1008200000B583B0019000910C4A019B52F823203F
:10083000009B9A4206D1094A019B002142F82310ED
:10084000002306E004F01AFA0246092313604FF071
:10085000FF33184603B05DF804FB00BF9C01002085
:1008600000B587B00190009140238DF80C3003ABA8
:10087000013301A90422184605F00AFB03AB0099D5
:10088000184604F00FFC0590059B002B08D0019B37
:10089000184600F0D4FA0346002B01D0012300E0F3
:1008A0000023002B02D0059800F0E4FB059B1846BE
:1008B00007B05DF804FB00B585B001900091019888
:1008C000FFF788FF0390039B002B01D100230CE06E
:1008D00000990398FFF7C4FF0290029B002B03D1FD
:1008E00001990398FFF79CFF029B184605B05DF83D
:1008F00004FB000000B585B00190009126490198E5
:1009000005F082FD0346002B0CBF01230023DBB260
:10091000002B04D00020FFF7D3FE002337E01F494F
:10092000019805F071FD0346002B0CBF0123002345
:10093000DBB2002B04D00120FFF7C2FE012326E02A
:100940001749019805F060FD0346002B0CBF0123F9
:100950000023DBB2002B04D00220FFF7B1FE0223FC
:1009600015E0019B1B78402B08D1019B591C03AB60
:100970000422184605F08CFA039B08E00098FFF764
:10098000DBFE03461946019800F00CF803461846B2
:1009900005B05DF804FB00BFD4CF0008DCCF000831
:1009A000E4CF00080EB410B589B00190FFF7D0FE77
:1009B0000790079B002B01DA079B5EE0002304935E
:1009C00002AB0199184601F039FD02AB184601F05F
:1009D000EEFD034683F00103DBB2002B07D0079B3B
:1009E00019466FF01200FFF78FFE034645E002AB99
:1009F000184601F0ACFD0346002B06D002AB1846AA
:100A000001F0BDFD0346049327E002AB184601F058
:100A100086FD0690069B002B07D1079B19466FF0B9
:100A20001200FFF771FE034627E0069B1B680833A0
:100A30001C6802AB184601F053FD024604A90B9B4B
:100A40000698A0470590059B002B06D0079B1946EA
:100A50000598FFF759FE03460FE0049A0A49079BE1
:100A600041F82320094A079B134400221A70084AC0
:100A7000079B134400221A70079B184609B0BDE873
:100A8000104003B0704700BF9C0100208C0C002078
:100A9000CC0C002000B583B00190019800F006F85E
:100AA0000346184603B05DF804FB000000B585B0AE
:100AB00001900198FFF704FE0390144A019B002166
:100AC00042F82310039B002B07D104F0D7F802460D
:100AD000092313604FF0FF3313E0039B1B681433AB
:100AE0001B68039898470290029B002B08DA04F0D9
:100AF000C5F80246029B5B4213604FF0FF3300E0F3
:100B00000023184605B05DF804FB00BF9C010020DF
:100B100082B001900023184602B0704700B58BB038
:100B20000390029101920093019B002B07DA04F0DD
:100B3000A5F80246162313604FF0FF338BE0019BAC
:100B40000693002309930398FFF7E2FF0346002B67
:100B500056D0434A039B13441B788DF8233000235F
:100B60000793079A069B9A424ADA079B029A134414
:100B70001B780A2B3AD19DF823300D2B36D0079ADB
:100B8000099B9A421EDD099B029AD118079A099B7C
:100B9000D31A1A46039800F067F80590059B002BBE
:100BA00002DA4FF0FF3356E0099A059B134409938C
:100BB000099A079B9A424ADB294A039B13449DF8F2
:100BC00023201A7001222749039800F04DF8059060
:100BD000059B002B02DA4FF0FF333CE0059B002B16
:100BE00037DD1F4A039B13440D221A70079B029A9C
:100BF00013441B788DF82330079B01330793B0E72C
:100C0000099A069B9A4225DA099B029AD118069AFC
:100C1000099BD31A1A46039800F026F80490049B07
:100C2000002B02DA4FF0FF3315E0099A049B1344BE
:100C30000993099B002B0DDD099B013B029A13448C
:100C40001978074A039B13440A461A7002E000BF52
:100C500000E000BF099B18460BB05DF804FB00BF25
:100C6000CC0C0020ECCF000800B587B003900291B7
:100C700001920398FFF724FD0590059B002B07D1F7
:100C800003F0FCFF0246092313604FF0FF3315E029
:100C9000059B1B680C331B68019A029905989847BD
:100CA0000490049B002B08DA03F0E8FF0246049B43
:100CB0005B4213604FF0FF3300E0049B184607B01F
:100CC0005DF804FB00B589B0039002910192009396
:100CD000019B002B07DA03F0D1FF024616231360B5
:100CE0004FF0FF336BE0002307930398FFF710FFEB
:100CF0000346002B5CD00DF117030122194603981F
:100D000000F064F80690069B002B02DA4FF0FF33E8
:100D100055E0069B002B01D1079B50E09DF8173052
:100D20000D2B05D1284A039B13441B780A2B09D1AC
:100D30009DF817300A2B10D1234A039B13441B78CC
:100D40000D2B0AD09DF817101F4A039B13440A4627
:100D50001A70029B0A221A7027E09DF817300D2B9B
:100D600005D1194A039B13441B780A2B09D09DF81F
:100D700017300A2B0DD1144A039B13441B780D2BFB
:100D800007D19DF81710104A039B13440A461A70A6
:100D9000B1E79DF817100C4A039B13440A461A70DA
:100DA0009DF81720029B1A7000BF0123079305E0EE
:100DB000019A0299039800F009F80790079B1846DA
:100DC00009B05DF804FB00BF8C0C002000B587B0B3
:100DD0000390029101920398FFF772FC0590059B26
:100DE000002B07D103F04AFF0246092313604FF09E
:100DF000FF3315E0059B1B6808331B68019A0299B5
:100E0000059898470490049B002B08DA03F036FFFE
:100E10000246049B5B4213604FF0FF3300E0049BEB
:100E2000184607B05DF804FB00B583B00190019847
:100E300000F005F80346184603B05DF804FB00B562
:100E400085B001900198FFF73BFC0390039B002BBA
:100E500006D103F013FF024609231360002312E0BA
:100E6000039B1B681C331B68039898470290029BE6
:100E7000002B07DA03F002FF0246029B5B4213607D
:100E8000002300E0029B184605B05DF804FB00B5A6
:100E900087B0039002910192019A0299039800F0A1
:100EA00006F80590059B184607B05DF804FB00B5F1
:100EB00087B00390029101920398FFF701FC05901F
:100EC000059B002B07D103F0D9FE024609231360CE
:100ED0004FF0FF3315E0059B1B6810331B68019A28
:100EE0000299059898470490049B002B08DA03F0B8
:100EF000C5FE0246049B5B4213604FF0FF3300E0E7
:100F0000049B184607B05DF804FB00B583B0019060
:100F100000910099019800F005F80346184603B0C7
:100F20005DF804FB00B585B0019000910198FFF7D2
:100F3000C7FB0390039B002B07D103F09FFE0246E3
:100F4000092313604FF0FF3319E0039B1B681C3328
:100F50001B68039898470346002B02D04FF40052B9
:100F600001E04FF40042009B5A60039B1B6828334A
:100F70001B68039898470246009B1A610023184695
:100F800005B05DF804FB08B5012000F063F800002F
:100F900010B485B001901B4B1B680393194B1A6862
:100FA000019B13440293EFF308831C4623461A4621
:100FB000029B9A4294BF01230023DBB2002B05D091
:100FC000114B0C221A604FF0FF3315E00F4B1B68DA
:100FD000002B0DD00E4B1A680C4B1B681A44029B59
:100FE0009A4205D8084B0C221A604FF0FF3303E0F9
:100FF000044A029B1360039B184605B05DF8044B3E
:10100000704700BF9C02002080100020880C002048
:10101000840C002000B583B00190094B1B689B68CD
:10102000184603F0FBFE064B1B68DB68184603F00E
:10103000F5FE019B002B01D001F0F1FAFEE700BFA5
:10104000A802002084B00390029101920123184667
:1010500004B0704700B583B001900198FFF7DAFF44
:1010600000BF03B05DF804FB82B001900123184675
:1010700002B0704700B583B001900021019805F0DF
:10108000ABF800BF03B05DF804FB82B0019000BF75
:1010900002B0704782B0019000BF02B0704700B547
:1010A00083B001900198FFF7F0FF00BF03B05DF837
:1010B00004FB00B583B001900198FFF7EBFF00BF80
:1010C00003B05DF804FB000000B585B00190019B02
:1010D0000393039B1B7803F00303012B01D100232F
:1010E0001FE0FFF7E0F8039B1B7803F00303012BDD
:1010F00003D1FFF7DAF8002313E0039B1B7803F01A
:101100000303002B05D040F2A9520849084801F01A
:101110005BFA039B1B7843F00203DAB2039B1A705D
:101120000123184605B05DF804FB00BFFCCF0008A2
:101130002CD0000800B585B00190019B0393039B60
:101140001B7803F00303022B05D040F2B1520B4988
:101150000B4801F039FA039B1B785BB223F00303C1
:101160005BB243F001035BB2DAB2039B1A70FFF784
:101170009CF800BF05B05DF804FB00BFFCCF000881
:1011800054D0000800B583B00190019804F072FBC0
:1011900000BF03B05DF804FB82B00190019B1846CC
:1011A00002B0704782B00190019B184602B07047B0
:1011B00082B00190019B184602B0704700B583B021
:1011C0000190019800F006F80346184603B05DF858
:1011D00004FB000010B582B00190019B1B68002B3E
:1011E00018D1FFF760F8019B1B68002B10D1019B01
:1011F000043319460120FFF74FF80446002C04D0B1
:101200002046FFF754F8224600E02246019B1A6070
:10121000FFF74BF8019B1A68019B04339A4204D0F4
:101220005E220449044801F0CFF9019B1B6818466F
:1012300002B010BDD4D0000800D1000800B583B0C2
:101240000190064A019B1A60019B1846FFF744F87B
:10125000019B184603B05DF804FB00BF1CD10008D9
:1012600000B583B001900198FFF7E8FF0198FFF700
:1012700089FF019B184603B05DF804FB00BF70476F
:1012800000BF704784B0104B9B6802934FF000532F
:101290000193002303930CE0039B9B00019A1344EA
:1012A000039A920002990A4412681A60039B013360
:1012B0000393039B642BEFDD034B4FF000529A60C6
:1012C00000BF04B0704700BF00ED00E008B5FFF7B5
:1012D000D9FF02F0B5FCFFF7D3FF00BF08BD08B58A
:1012E000FFF7CCFFFEF7C6FF0346184608BD000017
:1012F000DFF830D0002103E00B4B5B584350043142
:101300000A480B4B42189A42F6D30A4A02E00023DD
:1013100042F8043B084B9A42F9D301F02DFCFEF74A
:101320006FFF70470080012024DD00089801002035
:10133000640C0020680C002084100020FEE70000F0
:1013400082B003468DF807309DF90730002B0CDB87
:1013500007499DF907305B099DF8072002F01F023D
:10136000012000FA02F241F8232000BF02B07047CA
:1013700000E100E082B003468DF807309DF90730A8
:10138000002B11DB0A499DF907305B099DF8072006
:1013900002F01F02012000FA02F2203341F823205C
:1013A000BFF34F8FBFF36F8F00BF02B0704700BF16
:1013B00000E100E084B0034600918DF80730074B50
:1013C0009B6803939DF9073010339B00039A1344E5
:1013D000009A1A6000BF04B0704700BF00ED00E043
:1013E00000B587B00190019800F032FB03468DF8FC
:1013F00017309DF91730002B4EDB9DF917309B01FC
:10140000274A134404939DF91730264A52F8233093
:10141000002B41D0049B1B681B6803F08003802BCA
:1014200010D1049B1B68DB6803F08003002B09D0FC
:101430001D4B1B689DF917201A4951F822200121E4
:1014400010469847049B1B681B6803F02003202B61
:1014500010D1049B1B68DB6803F02003002B09D02C
:10146000114B1B689DF917200E4951F822200021CD
:1014700010469847049B1B681B6803F00803082B61
:101480000AD1049B1B685B6903F00103002B03D0A6
:10149000049B1B685B68039300BF07B05DF804FB07
:1014A000080F00201C0D0020280D002008B5024860
:1014B000FFF796FF00BF08BD0010014008B50248C5
:1014C000FFF78EFF00BF08BD0044004008B502488A
:1014D000FFF786FF00BF08BD0014014086B00390EF
:1014E00002910192039B0593054A029B1360059BA1
:1014F0005B680449019A41F8232000BF06B0704799
:10150000280D00201C0D002000B58BB003900B4669
:1015100001928DF80B30039B0693069B5B689B0141
:101520003F4A1344059300238DF827300023089386
:10153000069B1B683B4A934206D03B4A93420FD01E
:101540003A4A934206D011E025238DF82730384BD4
:1015500008930BE026238DF82730364B089305E0DF
:1015600047238DF82730344B089300BF019B002B95
:1015700020D09DF80B30002B08D1059B1B68059AE5
:101580001268D26842F02002DA6007E0059B1B680F
:10159000059A1268D26842F08002DA609DF927301D
:1015A00008991846FFF706FF9DF927301846FFF700
:1015B000C7FE30E0002307939DF80B30002B11D1BC
:1015C000059B1B68059A1268D26822F02002DA6037
:1015D000059B1B68DB6803F08003002B13D10123FC
:1015E000079310E0059B1B68059A1268D26822F0E9
:1015F0008002DA60059B1B68DB6803F02003002B88
:1016000001D101230793079B002B04D09DF92730BC
:101610001846FFF7AFFE00BF0BB05DF804FB00BF3C
:10162000080F002000100140001401400044004059
:10163000AD140008BD140008CD14000800B585B035
:101640000190019B0393039B5B689B01094A134430
:10165000029300BF019800F061F90346002BF9D016
:10166000029B1B685B68C3F30803184605B05DF86E
:1016700004FB00BF080F002000B585B00190009169
:10168000019B0393039B5B689B010A4A13440293EB
:1016900000BF019800F06EF90346002BF9D0029BC1
:1016A0001B68009AC2F308025A6000BF05B05DF8DB
:1016B00004FB00BF080F00200FB400B583B005ABDA
:1016C0000193074B1B68DB68019A0499184606F0E2
:1016D000BDFB00BF03B05DF804EB04B0704700BF72
:1016E000A802002000B58BB001900B46ADF8023087
:1016F0001346ADF80030019B089300238DF8273086
:10170000BDF902306C49184600F05AFA0790BDF94D
:1017100000306A49184600F053FA06900699079877
:1017200000F008FA0246089B1A60089B1B68B3F198
:10173000FF3F04D13D226249624800F045FFBDF9F8
:101740000230022B03D0BDF90030032B03D101235B
:101750008DF827300AE05849022000F031FA02469D
:10176000079B9A4202D1584801F088F8089B1B68F1
:10177000564A93420DD100230593554A544B5B6C56
:1017800043F010035364524B5B6C03F0100305935A
:10179000059B089B1B684F4A93420DD1002304937D
:1017A0004B4A4B4B1B6C43F400331364484B1B6C8C
:1017B00003F400330493049B089B1B68464A93423E
:1017C0000DD100230393424A414B5B6C43F020034D
:1017D00053643F4B5B6C03F020030393039B089B14
:1017E0001B68184600F034F903461A46089B5A60F5
:1017F000089B5B68002B04DAA4223149374800F0CB
:10180000E3FEBDF902302C49184600F055F9BDF948
:1018100000302A49184600F04FF9BDF90230B3F103
:10182000FF3F05D0BDF902300121184602F0F2FB5E
:10183000BDF90030B3F1FF3F05D0BDF90030012103
:10184000184602F0E7FB089B4FF416529A609DF889
:101850002730002B04D0089B4FF416529A6003E007
:10186000089B4FF416529A60089B0022DA60089B8E
:1018700000221A61089B00225A61089B00221A620A
:10188000089BBDF802201A83089BBDF800205A83EC
:10189000019800F089F89DF82730002B07D0104BF5
:1018A00001221A604C2201990E4804F0F1FA00BF9F
:1018B0000BB05DF804FB00BF2CD6000874D60008FE
:1018C00064D1000898D10008B4D10008001001408C
:1018D000003802400044004000140140ECD10008F0
:1018E0002C0D0020C80F002000B585B0019000919C
:1018F000019B0393009A039B9A60019800F054F8AF
:101900000346002B03D000990348FFF7D5FE00BF24
:1019100005B05DF804FB00BF00D2000886B001905E
:10192000019B0593059B5B689B01114A134404933B
:10193000049B1B681B6803F00803082B0AD10023D3
:101940000393049B1B681B680393049B1B685B68E1
:101950000393039B049B1B681B6803F02003202B4D
:101960000CBF01230023DBB2184606B0704700BF4E
:10197000080F002084B00190019B0393039B5B68D8
:101980009B01084A13440293029B1B681B6803F0E7
:101990008003802B0CBF01230023DBB2184604B068
:1019A000704700BF080F002000B585B00190019B73
:1019B0000393039B5B689B01244A13440293039B9C
:1019C0001B681A46029B1A60039B9A68029B5A6026
:1019D000039BDA68029B9A60039B1A69029BDA6098
:1019E000039B5A69029B1A61039B1A6A029B9A61C4
:1019F000029B0022DA61029B0022DA84029B002211
:101A00009A84029B0022DA85029B00229A85039B1E
:101A1000B3F91A30B3F1FF3F03D1029B08225A6198
:101A20000CE0039BB3F91830B3F1FF3F03D1029BE5
:101A300004225A6102E0029B0C225A61029801F0D2
:101A4000EFFD0346184605B05DF804FB080F0020C3
:101A500084B0019000238DF80F30019B134A93420C
:101A600002D19DF90F301EE09DF80F3001338DF843
:101A70000F30019B0E4A934202D19DF90F3012E0C4
:101A80009DF80F3001338DF80F30019B094A9342C6
:101A900002D19DF90F3006E09DF80F3001338DF82B
:101AA0000F304FF0FF33184604B07047001001406C
:101AB000004400400014014000B585B00346029187
:101AC000ADF80E30BDF90E30B3F1FF3F29D018E06C
:101AD000029BB3F90030BDF90E209A420ED1029B51
:101AE0009A68BDF90E301146184602F005FABDF9A4
:101AF0000E300021184602F08DFA13E0029B0C33E1
:101B00000293029BB3F90030B3F1FF3FE0D1BDF97E
:101B10000E200023009300230449054800F030FF05
:101B200000E000BF05B05DF804FB00BFC0D20008B4
:101B30003001018000B585B003900291039A029BA9
:101B40009A4201D1039B15E0039BB3F1FF3F01D102
:101B5000029B0FE0029BB3F1FF3F01D1039B09E021
:101B6000002300930023039A0449054800F008FF6E
:101B70004FF0FF33184605B05DF804FBD4D20008DF
:101B80003001018082B003460091ADF806300CE0D0
:101B9000009BB3F90030BDF906209A4202D1009BA8
:101BA0005B680AE0009B0C330093009BB3F90030A4
:101BB000B3F1FF3FECD14FF0FF33184602B070474E
:101BC00000B587B003460291ADF80E304FF0FF33F9
:101BD0000593BDF90E30B3F1FF3F02D14FF0FF3353
:101BE00013E0BDF90E3002991846FFF7CBFF0590C0
:101BF000059BB3F1FF3F07D1002300930023059A13
:101C00000449054800F0BCFE059B184607B05DF886
:101C100004FB00BFE8D20008300101802DE9F04745
:101C20008CB00390039B5B6893F83830002B40F036
:101C3000E980039B1B681B689847039B1B689B6993
:101C400098470890089B1B680B93089B1B68002B08
:101C500006D129226D496E4800F0B6FC6D4B0B93FE
:101C600000238DF82B301F238DF82A3012E09DF8C9
:101C70002A30012202FA03F31A460B9B9A4204D13E
:101C80009DF82A308DF82B3008E09DF82A30013B72
:101C90008DF82A309DF82A30002BE8D1089B5B682C
:101CA0000993089B5B68202B03D8089B5B68032B78
:101CB00006D837225549564800F086FC2023099360
:101CC000099B043B072202FA03F30793079B19467B
:101CD0004FF000020B46144660010190019840EA63
:101CE000D36001905B010093DDE900345B1A64EB83
:101CF00002044FEA442A4AEAD35A4FEA43294B46A0
:101D000054465B1844EB0204A60146EA93669D0123
:101D1000ED1A66EB0406491942EB06020B9B4FF0E5
:101D200000045B1844EB020413F1FF3044F1FF316F
:101D30000B9B4FF000041A4623460AF0D3F90346E2
:101D40000C46CDE90434039B5B6800221A60039BB8
:101D50005B6800225A60039B5C68039B1B685B689E
:101D6000984703462362039B5A684FF000034FF0E5
:101D70000004C2E90A34039B5B680B9A9A60039BD8
:101D80005B689DF82B2083F83A20039B5D684FF039
:101D900001034FF00004099AA2F12000C2F12001D2
:101DA00004FA02F803FA00F048EA000823FA01F105
:101DB00048EA010803FA02F73B46013BEB60039B4C
:101DC0005B68079A1A61039B5A68DDE90434C2E92B
:101DD0000634039B5A684FF000034FF00004C2E939
:101DE0000C34039B5B68002283F83920039B5B68FB
:101DF000012283F83820039800F00EF8039800F0D1
:101E000005FA00E000BF0CB0BDE8F08728D3000859
:101E100050D3000840420F002DE9F04796B00B90D8
:101E20000B9B5B6813930B9B1B685B689847129036
:101E30000B9B5B681A6A129B9A4200F02E81139BDF
:101E40001A6A129B9A1A139BDB6813404FF0000426
:101E5000CDE91034139A129B1362139B9A68914B2D
:101E60009A4204D1DDE91034CDE9143409E1139B21
:101E700093F83A30002B00F08F80DDE910120B460A
:101E8000144660010190019840EAD36001905B0123
:101E90000093DDE900345B1A64EB020460020390F6
:101EA000039840EAD35003905B020293DDE90234C9
:101EB0005B1844EB0204A0010590059840EA93608A
:101EC000059098010490DDE90456ED1A66EB0406CE
:101ED0002B4634465B1844EB0204CDE90E34139BC9
:101EE00093F83A301A46DDE90E34C2F12000A2F12F
:101EF000200123FA02F904FA00F049EA000924FA61
:101F000001F149EA010924FA02FACDE9149A139B76
:101F1000D3E90A56139B93F83A301A46DDE9143494
:101F2000A2F12000C2F1200104FA02F803FA00F045
:101F300048EA000823FA01F148EA010803FA02F727
:101F4000DDE90E34DB1B64EB08045B1944EB06048B
:101F5000139AC2E90A34139BD3E90A12139B9B68B4
:101F60004FF00004A24208BF9942C0F08A80DDE928
:101F70001434013344F10004CDE91434139BD3E944
:101F80000A12139B9B684FF00004CB1A62EB040407
:101F9000139AC2E90A3474E0DDE910120B461446C4
:101FA00060010790079840EAD36007905B010693B1
:101FB000DDE906345B1A64EB0204600209900998BB
:101FC00040EAD35009905B020893DDE908345B18BE
:101FD00044EB0204A60146EA93669D01ED1A66EB06
:101FE00004066B1846EB0204CDE90C34139B9B6886
:101FF0004FF000041A462346DDE90C010AF072F89E
:1020000003460C46CDE91434139BD3E90A12139B03
:102010009B684FF00004149804FB00F5159803FB2F
:1020200000F02844149DA5FB033420440446DDE958
:102030000C56EB1A66EB04045B1844EB0204139A8B
:10204000C2E90A34139BD3E90A12139B9B684FF031
:102050000004A24208BF994213D3DDE914340133CE
:1020600044F10004CDE91434139BD3E90A12139B05
:102070009B684FF00004CB1A62EB0404139AC2E988
:102080000A34139BD3E90C12DDE914345B1844EBDA
:102090000204139AC2E90C3400E000BF16B0BDE898
:1020A000F08700BF40420F0070B588B00390CDE9C3
:1020B0000023039B5B680693069BD3E90C23DDE9B1
:1020C0000001821A61EB0303CDE90423039B5B68E3
:1020D0001B690793039B5B68D3E90601DDE90423D1
:1020E000994208BF904262D3069B9B68354A93424F
:1020F0000CD1049B0793039B5B681A69079B9A4268
:1021000055D2039B5B681B69079350E0069B93F8CD
:102110003A30002B29D0039B5B6893F83A3019467C
:10212000DDE90423A1F12006C1F1200003FA01F545
:1021300002FA06F6354322FA00F0054302FA01F4EA
:10214000204A4FF000032046294609F0CBFF034602
:102150000C460793039B5B681A69079B9A4226D239
:10216000039B5B681B69079321E0069B9B684FF00C
:102170000004049A04FB02F1059A03FB02F20A44EC
:102180000499A1FB0301531819460E4A4FF00003AE
:1021900009F0A8FF03460C460793039B5B681A6986
:1021A000079B9A4203D2039B5B681B690793069BBC
:1021B0001A6A079B1A44069BDB681340184608B04E
:1021C00070BD00BF40420F0084B0039002910192A5
:1021D000019A039B9A420BD9029A019B9A4203D21D
:1021E000029A039B9A4201D201230CE000230AE0E9
:1021F000029A039B9A4205D2029A019B9A4201D30A
:10220000012300E00023184604B0704710B58CB0DD
:102210000190019B5B680B93019B5B6893F83930DD
:10222000002B59D10198FFF7F7FD019B5B685B68B4
:10223000002B42D0019B5B68D3E90C34CDE9083414
:10224000019B5B685B68D3E90034CDE90634DDE9C6
:102250000634DDE90812A24208BF994204D3019B6B
:102260001B685B69984738E0DDE906230198FFF7B2
:102270001BFF05900B9B1A6A059B9A4204D1019B98
:102280001B685B69984728E0019B1B681B690598E0
:102290009847019B1B685B68984704900B9B1B6ADF
:1022A000059A04991846FFF78FFF0346002B14D0B8
:1022B000019B1B685B6998470FE00B9B1A6A0B9B9D
:1022C0001B691A440B9BDB6813400393019B1B683B
:1022D0001B690398984700E000BF0CB010BD10B513
:1022E00084B0019000F03AFA019B1B68DB689847C4
:1022F000019B5B68012283F83920019B5B685B6866
:10230000002B27D00198FFF787FD019B5B685B6876
:10231000D3E90034019A5268D2E90C12A24208BFF4
:10232000994219D3019B5B685B680393019B5B68CF
:10233000019A52685268D2685A60019B5B681B68B8
:10234000002BDAD0019B5B681B68039A92681046E9
:102350009847D2E700BF00E000BF019B5B68002206
:1023600083F839200198FFF751FF00F011FA00BF00
:1023700004B010BD10B582B00190019800F005F8CE
:1023800003460C46184602B010BD10B582B001904D
:102390000198FFF743FC00F0E1F90198FFF73CFDDD
:1023A00000F0F6F9019B5B68D3E90C34184621462E
:1023B00002B010BD014B1846704700BF70D3000833
:1023C00008B5054B1B68002B03D0034B1B68034863
:1023D000984700BF08BD00BFA002002070D30008CE
:1023E00082B001900023184602B0704700B585B056
:1023F0000190019B1B6810331B680122002101988A
:1024000098470390039B002B01DA039B11E0019B8B
:102410001B6810331B680222002101989847029024
:10242000019B1B6810331B68002203990198984791
:10243000029B184605B05DF804FB000000B587B0AC
:1024400001900091019B00221A60019B00225A60BA
:102450002049009804F014FA0246009B13440093AC
:10246000009B0493019B049A1A6000230593019B2F
:102470001B681B788DF80F309DF80F302F2B05D17E
:10248000019B1B685A1C019B1A600DE09DF80F30E0
:10249000002B08D0059B01330593019B1B685A1C38
:1024A000019B1A60E3E700BF059B002B04D12922A2
:1024B00009490A4800F088F8059B1946049802F07B
:1024C000DBF80246019B5A60019B184607B05DF895
:1024D00004FB00BFC8D30008CCD30008F4D3000825
:1024E00082B00190019B1B68184602B0704700B58E
:1024F00083B00190019B5B68002B01D100230AE0AF
:10250000019B5B68184602F001F90346012B0CBFE2
:1025100001230023DBB2184603B05DF804FB00B5CD
:1025200083B001900198FFF7E2FF0346002B09D02A
:10253000019B5B68002B03D0019B5B68043B02E0BE
:10254000002300E00023184603B05DF804FB00B54B
:1025500083B00190019B5B68002B01D100230AE04E
:10256000019B5B68184602F0D1F80346002B0CBFB4
:1025700001230023DBB2184603B05DF804FB00B56D
:1025800083B001900198FFF7E2FF0346002B09D0CA
:10259000019B5B68002B03D0019B5B68043B02E05E
:1025A000002300E00023184603B05DF804FB82B06E
:1025B0000190019B5B68002B14BF01230023DBB259
:1025C000184602B07047000000B585B00390029134
:1025D000019200F0C3F8019B029A0399044800F0AD
:1025E0005CF800F01CF800BF05B05DF804FB00BF0C
:1025F00000D4000882B001900091009B002B05D010
:10260000019B9B68019A12681A6005E0019BDB68D8
:10261000019A126812041A6000BF02B0704700B538
:102620008BB000F09BF801AB0521184601F01AFFB2
:102630000023099312E001AB01211846FFF7DAFFEE
:10264000962000F071FA01AB00211846FFF7D2FF87
:10265000962000F069FA099B01330993099B032B2B
:10266000E9DD0023089314E001AB01211846FFF7D0
:10267000C1FF4FF4C87000F057FA01AB00211846B3
:10268000FFF7B8FF4FF4C87000F04EFA089B013313
:102690000893089B032BE7DDCAE70FB400B583B0AE
:1026A00005AB01930199049800F006F800BF03B050
:1026B0005DF804EB04B0704700B5A5B0019000913F
:1026C00000F04CF802A8009B019A802105F046FC1E
:1026D0002290229B002B1ADD104B1B68002B04D18B
:1026E000032202210E48FEF7FDFF002323930AE098
:1026F00002AA239B13441B7819460948FEF7BCFF26
:10270000239B01332393239A229B9A42F0DB00F010
:102710003FF800BF25B05DF804FB00BF2C0D002082
:10272000C80F002082B0EFF310830193019B03F0E8
:102730000103002B0CBF01230023DBB2184602B0BB
:10274000704782B0EFF305830193019B002B14BF08
:1027500001230023DBB2184602B0704708B5094BCD
:102760001B68B3F1FF3F04D1552207490748FFF723
:102770002BFF01F0FFFD034B1B680133014A13607F
:1027800000BF08BD700D002034D4000860D40008DC
:1027900008B5094B1B68002B0BD0074B1B68013B8E
:1027A000054A1360044B1B68002B03D101F000FEA7
:1027B00000E000BF08BD00BF700D002088B0019090
:1027C0000B46ADF80230019B0493049BD3E85F3FB6
:1027D0000393039B9AB2BDF802301344ADF81E3048
:1027E000BDF81E30ADF81C30019B0693BDF81C20CF
:1027F0000699C1E8532F0593059B002BE3D1BDF843
:102800001E30184608B0704788B001900B46ADF8EE
:102810000230019B0493049BD3E85F3F0393039B27
:102820009AB2BDF80230D31AADF81E30BDF81E3092
:10283000ADF81C30019B0693BDF81C200699C1E839
:10284000532F0593059B002BE3D1BDF81E3018468E
:1028500008B0704708B5FFF774FF0346002B07D197
:10286000FFF760FF034683F00103DBB2002B01D0CA
:1028700030BFFDE70120FEF7EDFB00000FB400B50F
:1028800085B07246104B1B78002B17D1134600936E
:102890000023002200210D4800F01EF80C490D48CD
:1028A00000F090F8084B01221A7007AB03930399CC
:1028B0000698FFF701FF0120FEF7CCFB00BF05B033
:1028C0005DF804EB04B07047740D00200001FF8038
:1028D00094D40008B00D002000B593B0039002918D
:1028E00001920093039B002B01DB1F4B039300BF5E
:1028F0001E4B1B78012BFBD0FFF730FF1B4B012237
:102900001A70FFF745FF1A4B1B680133184A136012
:1029100005AB00223421184603F054FB039B0593BA
:10292000149B0693029B0793114B1B68012B05D147
:1029300005AB342219460F4803F0AAFA05AB34223E
:1029400019460D4803F0A4FA0C4B1B68002B03D06A
:102950000A4B1B6808489847044B00221A70002352
:10296000184613B05DF804FB0101FF80740D0020D0
:10297000780D00207C0D0020B00D0020E40D00201B
:1029800010B586B0744605900491039202932346D5
:102990000093089B029A03990598FFF79DFF034651
:1029A000002B01D0054B06E00499054800F00AF819
:1029B000FFF750FF014B184606B010BD0F01FF8016
:1029C000B00D002010B586B003900291039B1B68E8
:1029D0005B1703F00303032B03D1039B1B685B42CC
:1029E00002E0039B1B689BB20593039B1B681B14AF
:1029F000DBB20493039B1968049B059A3D48FFF7DB
:102A00004CFE059BA3F23113072B4BD801A252F8C1
:102A100023F000BF352A0008432A0008512A000885
:102A20005F2A00086D2A0008892A00087B2A00080E
:102A3000972A0008039B9B6819462F48FFF72DFE35
:102A400031E0039B9B6819462C48FFF726FE2AE0DD
:102A5000039B9B6819462A48FFF71FFE23E0039B50
:102A60009B6819462748FFF718FE1CE0039B9B68EC
:102A700019462548FFF711FE15E0039B9B68194690
:102A80002248FFF70AFE0EE0039B9B681946204888
:102A9000FFF703FE07E0039B9B6819461D48FFF7FD
:102AA000FCFD00E000BF0298FFF7F7FD039B5B68A9
:102AB00019461948FFF7F1FD039B9B681946174813
:102AC000FFF7EBFD039BD968039B1869039B5C69C7
:102AD000039B9B69039AD2690192009323460246A5
:102AE0000F48FFF7DAFD0F48FFF7D7FD00BF06B02C
:102AF00010BD00BFACD4000800D5000818D50008F0
:102B000028D5000838D500084CD5000860D5000845
:102B100074D5000884D500089CD50008ACD5000801
:102B2000C0D5000810D6000800B583B00190019B05
:102B30004FF47A7202FB03F3184600F004F800BF6A
:102B400003B05DF804FB00B585B00190FFF732FCDF
:102B500003900398FFF70EFC029000BF0398FFF765
:102B600009FC0246029BD21A019B9A42F6D300BF8F
:102B700005B05DF804FB0000154A154BD3F888300A
:102B800043F47003C2F88830124A124B1B6843F0BA
:102B9000010313600F4B00229A600E4A0D4B1B6815
:102BA00023F0847323F4803313600A4B0A4A5A607B
:102BB000084A084B1B6823F480231360054B00224E
:102BC000DA60034B4FF000629A6000BF704700BFAD
:102BD00000ED00E0003802401030002408B501206C
:102BE00000F010F80346002B07D100F071F80346FF
:102BF000002B02D10248FFF741FE00BF08BD00BF15
:102C0000BCD6000800B597B003468DF80730002306
:102C100004932D4A2C4B1B6C43F0805313642A4BB6
:102C20001B6C03F080530493049B00230393274AF7
:102C3000264B1B6823F4404343F400431360234BAB
:102C40001B6803F440430393039B01230A939DF8FD
:102C50000730002B03D14FF480330B9302E04FF485
:102C6000A0230B93022310934FF4800311930823A6
:102C700012934FF4A873139304231493072315930B
:102C80000AAB184600F080F80346002B01D0002361
:102C900015E00F23059302230693002307934FF4B7
:102CA000805308930023099305AB0221184600F0D6
:102CB000ADFA0346002B01D0002300E001231846A3
:102CC00017B05DF804FB00BF003802400070004000
:102CD00000B595B000230293294A294B1B6C43F0A1
:102CE00080531364264B1B6C03F080530293029BAA
:102CF00000230193234A234B1B6823F4404343F4EE
:102D0000004313601F4B1B6803F440430193019B76
:102D10000323089301230B930023099310230C939F
:102D200002230E9300230F93102310934FF4A873E4
:102D30001193042312930723139308AB184600F052
:102D400023F80346002B01D0002315E00F23039343
:102D500002230493002305934FF48053069300232A
:102D6000079303AB0221184600F050FA0346002BEC
:102D700001D0002300E00123184615B05DF804FBE4
:102D8000003802400070004000B587B00190019B00
:102D9000002B01D101232FE2019B1B6803F00103EB
:102DA000002B75D0A34B9B6803F00C03042B0CD0B5
:102DB000A04B9B6803F00C03082B12D19D4B5B6862
:102DC00003F48003B3F5800F0BD19A4B1B6803F417
:102DD0000033002B5BD0019B5B68002B57D1012394
:102DE0000AE2019B5B68B3F5803F06D1914A914BA3
:102DF0001B6843F4803313601DE0019B5B68B3F5EF
:102E0000A02F0CD18B4A8B4B1B6843F4802313609B
:102E1000884A884B1B6843F4803313600BE0854A73
:102E2000844B1B6823F480331360824A814B1B68F8
:102E300023F480231360019B5B68002B13D000F008
:102E4000DDFE049008E000F0D9FE0246049BD31A90
:102E5000642B01D90323CFE1764B1B6803F40033C5
:102E6000002BF0D014E000F0C9FE049008E000F060
:102E7000C5FE0246049BD31A642B01D90323BBE190
:102E80006C4B1B6803F40033002BF0D100E000BF53
:102E9000019B1B6803F00203002B63D0654B9B680A
:102EA00003F00C03002B0BD0624B9B6803F00C0368
:102EB000082B1CD15F4B5B6803F48003002B16D1F9
:102EC0005C4B1B6803F00203002B05D0019BDB6801
:102ED000012B01D001238FE15649564B1B6823F08B
:102EE000F802019B1B69DB0013430B603AE0019B76
:102EF000DB68002B20D0504B01221A6000F07EFED0
:102F0000049008E000F07AFE0246049BD31A022BDC
:102F100001D9032370E1474B1B6803F00203002B28
:102F2000F0D04449434B1B6823F0F802019B1B6916
:102F3000DB0013430B6015E03F4B00221A6000F0EA
:102F40005DFE049008E000F059FE0246049BD31A8F
:102F5000022B01D903234FE1364B1B6803F0020318
:102F6000002BF0D1019B1B6803F00803002B30D02D
:102F7000019B5B69002B16D0304B01221A6000F0D8
:102F80003DFE049008E000F039FE0246049BD31A8F
:102F9000022B01D903232FE1264B5B6F03F00203C1
:102FA000002BF0D015E0254B00221A6000F026FE21
:102FB000049008E000F022FE0246049BD31A022B84
:102FC00001D9032318E11B4B5B6F03F00203002BB5
:102FD000F0D1019B1B6803F00403002B00F0A280DA
:102FE00000238DF81730134B1B6C03F08053002B1C
:102FF00010D1002303930F4A0E4B1B6C43F08053F8
:1030000013640C4B1B6C03F080530393039B01234D
:103010008DF817300A4B1B6803F48073002B20D106
:10302000074A074B1B6843F48073136000F0E6FD0A
:10303000049010E00038024000004742800E4742F2
:103040000070004000F0DAFD0246049BD31A022B08
:1030500001D90323D0E06A4B1B6803F48073002B73
:10306000F0D0019B9B68012B06D1664A654B1B6F14
:1030700043F0010313671CE0019B9B68052B0CD1F7
:10308000604A604B1B6F43F0040313675D4A5D4B5E
:103090001B6F43F0010313670BE05A4A594B1B6F38
:1030A00023F001031367574A564B1B6F23F00403A9
:1030B0001367019B9B68002B15D000F09FFD0490C7
:1030C0000AE000F09BFD0246049BD31A41F28832CD
:1030D000934201D903238FE04A4B1B6F03F0020395
:1030E000002BEED014E000F089FD04900AE000F01F
:1030F00085FD0246049BD31A41F28832934201D9DE
:10310000032379E03F4B1B6F03F00203002BEED14A
:103110009DF81730012B05D13A4A3A4B1B6C23F02E
:1031200080531364019B9B69002B64D0354B9B68D3
:1031300003F00C03082B5CD0019B9B69022B41D14F
:10314000314B00221A6000F059FD049008E000F0B5
:1031500055FD0246049BD31A022B01D903234BE0F1
:10316000284B1B6803F00073002BF0D12549019B0D
:10317000DA69019B1B6A1A43019B5B6A9B011A4334
:10318000019B9B6A5B08013B1B041A43019BDB6AA2
:103190001B0613434B601C4B01221A6000F02EFDEE
:1031A000049008E000F02AFD0246049BD31A022B8B
:1031B00001D9032320E0134B1B6803F00073002B9D
:1031C000F0D018E0104B00221A6000F017FD0490B8
:1031D00008E000F013FD0246049BD31A022B01D92C
:1031E000032309E0074B1B6803F00073002BF0D1A9
:1031F00001E0012300E00023184607B05DF804FB5E
:1032000000700040003802406000474200B585B0C1
:1032100001900091019B002B01D10123CAE0674B73
:103220001B6803F00F02009B9A420CD2634B009A7A
:10323000D2B21A70614B1B6803F00F02009B9A42D6
:1032400001D00123B6E0019B1B6803F00203002BB1
:1032500020D0019B1B6803F00403002B05D0584AC3
:10326000574B9B6843F4E0539360019B1B6803F04A
:103270000803002B05D0524A514B9B6843F460432E
:1032800093604F494E4B9B6823F0F002019B9B6873
:1032900013438B60019B1B6803F00103002B44D098
:1032A000019B5B68012B07D1454B1B6803F400337E
:1032B000002B19D101237DE0019B5B68022B03D019
:1032C000019B5B68032B07D13D4B1B6803F0007328
:1032D000002B09D101236DE0394B1B6803F0020379
:1032E000002B01D1012365E03549354B9B6823F064
:1032F0000302019B5B6813438B6000F07FFC03902B
:103300000AE000F07BFC0246039BD31A41F28832AC
:10331000934201D903234DE0294B9B6803F00C0233
:10332000019B5B689B009A42EBD1244B1B6803F026
:103330000F02009B9A420CD9204B009AD2B21A700D
:103340001E4B1B6803F00F02009B9A4201D0012321
:1033500030E0019B1B6803F00403002B08D01849E0
:10336000174B9B6823F4E052019BDB6813438B608F
:10337000019B1B6803F00803002B09D01049104B78
:103380009B6823F46042019B1B69DB0013438B6045
:1033900000F01CF801460A4B9B681B0903F00F0361
:1033A000084AD35C21FA03F3074A13600F2000F0A8
:1033B0001BFC0023184605B05DF804FB003C0240EE
:1033C00000380240D0D60008A40200202DE9F04FBA
:1033D0008DB00023099300230B930023089300234F
:1033E0000A935F4B9B6803F00C03042B07D0082B58
:1033F00008D0002B40F0AB805A4B0A93AAE05A4BFE
:103400000A93A7E0564B5B6803F03F030993544BC4
:103410005B6803F48003002B49D0514B5B689B0928
:103420004FF0000440F2FF114FF0000201EA0301E7
:1034300002EA04020B46144660010190019840EA3A
:10344000D36001905B010093DDE900345B1A64EB0B
:1034500002044FEA841848EA93689F01FF1A68EB58
:1034600004084FEAC8030393039B43EA577303938B
:10347000FB000293DDE902787F1848EB02084FEA6F
:1034800048230593059B43EAD75305937B02049396
:10349000DDE9047838464146099B4FF000041A469E
:1034A000234608F01FFE03460C460B9341E02C4BCD
:1034B0005B689B094FF0000440F2FF114FF00002DF
:1034C00001EA030102EA04020B4614466001079078
:1034D000079840EAD36007905B010693DDE9063464
:1034E0005B1A64EB0204A60146EA93669D01ED1A9D
:1034F00066EB04064FEAC60C4CEA557C4FEAC50B56
:103500005D4666466D1846EB02064FEA862A4AEA91
:10351000955A4FEA85294D46564628463146099B1D
:103520004FF000041A46234608F0DCFD03460C4623
:103530000B930B4B5B681B0C03F0030301335B0025
:1035400008930B9A089BB2FBF3F30A9302E0054B36
:103550000A9300BF0A9B18460DB0BDE8F08F00BF6C
:10356000003802400024F40000127A00014B1B686E
:1035700018467047A402002008B5FFF7F7FF014680
:10358000054B9B689B0A03F00703044AD35C21FAAE
:1035900003F3184608BD00BF00380240E0D600081B
:1035A00008B5FFF7E3FF0146054B9B685B0B03F093
:1035B0000703044AD35C21FA03F3184608BD00BF91
:1035C00000380240E0D6000882B001900091019BD3
:1035D0000F221A60104B9B6803F00302019B5A6094
:1035E0000D4B9B6803F0F002019B9A600A4B9B68AD
:1035F00003F4E052019BDA60074B9B68DB0803F49D
:10360000E052019B1A61054B1B6803F00F02009BFF
:103610001A6000BF02B0704700380240003C024010
:1036200000B583B00190019B002B01D101233FE045
:10363000019B93F83930DBB2002B06D1019B0022AD
:1036400083F83820019800F037F8019B242283F892
:103650003920019B1B68019A1268D26822F400523B
:10366000DA60019800F02EF8019B1B68019A12683D
:10367000126922F490421A61019B1B68019A126838
:10368000526922F02A025A61019B1B68019A126852
:10369000D26842F40052DA60019B0022DA63019B97
:1036A000202283F83920019B202283F83A2000232E
:1036B000184603B05DF804FB82B0019000BF02B071
:1036C0007047000070B584B0019000230393019B04
:1036D0001B681B690393039B23F440530393019BD3
:1036E000DB68039A13430393019B1B68039A1A61D7
:1036F000019B1B68DB680393039B23F4164323F0B1
:103700000C030393019B9A68019B1B691A43019B5D
:103710005B691A43019BDB691343039A13430393C9
:10372000019B1B68039ADA60019B1B685B6903932A
:10373000039B23F440730393019B9B69039A1343F8
:103740000393019B1B68039A5A61019BDB69B3F5E4
:10375000004F40F0E480019B1B68AC4A934204D0C8
:10376000019B1B68AA4A93426CD1019B1C68FFF71E
:1037700017FF024613469B0013449A001A44019B0C
:103780005B685B00B2FBF3F3A24AA2FB03235B0975
:103790001D01FFF705FF024613469B0013449A00E4
:1037A0001A44019B5B685B00B2FBF3F6FFF7F8FE7F
:1037B000024613469B0013449A001A44019B5B681F
:1037C0005B00B2FBF3F3934AA2FB03235B09642281
:1037D00002FB03F3F31ADB0032338E4AA2FB03230E
:1037E0005B095B0003F4F8731D44FFF7D9FE024642
:1037F00013469B0013449A001A44019B5B685B00CC
:10380000B2FBF3F6FFF7CCFE024613469B001344CF
:103810009A001A44019B5B685B00B2FBF3F37D4A9C
:10382000A2FB03235B09642202FB03F3F31ADB0010
:103830003233784AA2FB03235B0903F007032B44CE
:10384000A36055E1019B1C68FFF796FE02461346F4
:103850009B0013449A001A44019B5B685B00B2FB17
:10386000F3F36C4AA2FB03235B091D01FFF784FEFF
:10387000024613469B0013449A001A44019B5B685E
:103880005B00B2FBF3F6FFF777FE024613469B00A0
:1038900013449A001A44019B5B685B00B2FBF3F38C
:1038A0005C4AA2FB03235B09642202FB03F3F31AC5
:1038B000DB003233574AA2FB03235B095B0003F4AE
:1038C000F8731D44FFF758FE024613469B0013444D
:1038D0009A001A44019B5B685B00B2FBF3F6FFF7AA
:1038E0004BFE024613469B0013449A001A44019B68
:1038F0005B685B00B2FBF3F3464AA2FB03235B0960
:10390000642202FB03F3F31ADB003233414AA2FBC9
:1039100003235B0903F007032B44A360E8E0019B4A
:103920001B683A4A934204D0019B1B68384A934271
:1039300072D1019B1C68FFF733FE024613469B00C1
:1039400013449A001A44019B5B689B00B2FBF3F39B
:10395000304AA2FB03235B091D01FFF721FE02464B
:1039600013469B0013449A001A44019B5B689B001A
:10397000B2FBF3F6FFF714FE024613469B00134416
:103980009A001A44019B5B689B00B2FBF3F3214A47
:10399000A2FB03235B09642202FB03F3F31A1B015E
:1039A00032331C4AA2FB03235B0903F0F0031D44DE
:1039B000FFF7F6FD024613469B0013449A001A4493
:1039C000019B5B689B00B2FBF3F6FFF7E9FD024643
:1039D00013469B0013449A001A44019B5B689B00AA
:1039E000B2FBF3F30B4AA2FB03235B09642202FB45
:1039F00003F3F31A1B013233064AA2FB03235B09CC
:103A000003F00F032B44A36072E000BF00100140DD
:103A1000001401401F85EB51019B1C68FFF7ACFDB2
:103A2000024613469B0013449A001A44019B5B68AC
:103A30009B00B2FBF3F3304AA2FB03235B091D0199
:103A4000FFF79AFD024613469B0013449A001A445E
:103A5000019B5B689B00B2FBF3F6FFF78DFD02460E
:103A600013469B0013449A001A44019B5B689B0019
:103A7000B2FBF3F3204AA2FB03235B09642202FB9F
:103A800003F3F31A1B0132331B4AA2FB03235B0926
:103A900003F0F0031D44FFF76FFD024613469B0041
:103AA00013449A001A44019B5B689B00B2FBF3F637
:103AB000FFF762FD024613469B0013449A001A4426
:103AC000019B5B689B00B2FBF3F30B4AA2FB032351
:103AD0005B09642202FB03F3F31A1B013233064A2B
:103AE000A2FB03235B0903F00F032B44A360FFE752
:103AF00000BF04B070BD00BF1F85EB5186B000232E
:103B000004930023059302230393002302930223CB
:103B10000193304B9B6803F00C030493049B042B2C
:103B200007D0082B09D0002B3DD12B4B2B4A1A6014
:103B30003DE0294B2A4A1A6039E0264B5B689B0D11
:103B400003F001030293234B5B6803F03F030193EF
:103B5000029B002B0CD0224A019BB2FBF3F31D4ABF
:103B600052689209C2F3080202FB03F305930BE0CB
:103B70001A4A019BB2FBF3F3164A52689209C2F348
:103B8000080202FB03F30593124B5B681B0C03F066
:103B9000030301335B000393059A039BB2FBF3F32A
:103BA0000D4A136003E00C4B0C4A1A6000BF094B2E
:103BB0009B681B0903F00F030A4AD35C0493064B6E
:103BC0001A68049B22FA03F3034A136000BF06B08D
:103BD000704700BF00380240A40200200024F40017
:103BE00000127A00D0D6000800B583B0019000F032
:103BF000E5FA0023184603B05DF804FB10B50E4B40
:103C00001B68002B0ED0FEF7D5FB03461846FEF7C7
:103C1000BCFB4FF47A724FF0000308F063FA0346DE
:103C20000C4606E000F04AFB0246044BA3FB0223CD
:103C30009B09184610BD00BFE80D0020D34D62104F
:103C400008B5FFF75BFF00F075FDFEF7C7FFFFF754
:103C500055FF024B01221A6000BF08BDE80D00208D
:103C600088B0039002910192039B1A6A029B05930C
:103C7000059B93FAA3F30493049BB3FA83F3DBB29B
:103C80009B000F2101FA03F3DB431A40029B0793C9
:103C9000079B93FAA3F30693069BB3FA83F3DBB275
:103CA0009B00019901FA03F31A43039B1A6200BFB8
:103CB00008B0704788B0039002910192039B5A6A42
:103CC000029B1B0A0593059B93FAA3F30493049BA1
:103CD000B3FA83F3DBB29B000F2101FA03F3DB435A
:103CE0001A40029B1B0A0793079B93FAA3F30693C0
:103CF000069BB3FA83F3DBB29B00019901FA03F34D
:103D00001A43039B5A6200BF08B0704788B0039003
:103D100002910192039B1A68029B0593059B93FAFB
:103D2000A3F30493049BB3FA83F3DBB25B00032198
:103D300001FA03F3DB431A40029B0793079B93FAB4
:103D4000A3F30693069BB3FA83F3DBB25B000199FE
:103D500001FA03F31A43039B1A6000BF08B07047CF
:103D600082B001900091019B1968009B009A02FBB0
:103D700003F213465B00134401EA0302009B00991F
:103D800001FB03F3B2FBF3F3184602B0704788B0AF
:103D9000039002910192039BDA68029B0593059BB5
:103DA00093FAA3F30493049BB3FA83F3DBB25B00AF
:103DB000032101FA03F3DB431A40029B0793079B9D
:103DC00093FAA3F30693069BB3FA83F3DBB25B008B
:103DD000019901FA03F31A43039BDA6000BF08B0AC
:103DE000704784B0039002910192039B5A68029B32
:103DF000DB431A40029B019901FB03F31A43039B27
:103E00005A6000BF04B0704788B0039002910192DD
:103E1000039B9A68029B0593059B93FAA3F3049373
:103E2000049BB3FA83F3DBB25B00032101FA03F3D3
:103E3000DB431A40029B0793079B93FAA3F3069375
:103E4000069BB3FA83F3DBB25B00019901FA03F33B
:103E50001A43039B9A6000BF08B0704782B00346C4
:103E6000ADF8063000BF02B0704700B585B00390D2
:103E700002910192019B012B02D0022B06D00BE094
:103E8000012202990398FFF782FF0BE002220299B8
:103E90000398FFF77CFF05E0002202990398FFF7E3
:103EA00076FF00BF00BF05B05DF804FB00B587B02A
:103EB00003900B460192ADF80A30BDF80A3003F0CA
:103EC0000F030C4A52F823300593BDF80A3003F073
:103ED0000F03072B05D9019A05990398FFF7EAFE0E
:103EE00004E0019A05990398FFF7BAFE00BF07B0F6
:103EF0005DF804FBE8D6000800B589B003460091E0
:103F0000ADF80630BDF90630B3F1FF3F04D13E22D3
:103F10003C493D48FEF758FB009B03F0070306931E
:103F2000009B1B1203F00F030593BDF906301B091C
:103F300003F00F030493BDF8063003F00F03334A78
:103F400052F82330039300230793049800F05EFD9A
:103F50000290022203990298FFF756FF069B032B5B
:103F60001DD801A252F823F0793F00087F3F0008D6
:103F7000853F0008993F00080023079315E00123BF
:103F8000079312E002230793BDF90630059A1946FC
:103F90000298FFF78BFF08E00323079305E06722F1
:103FA00018491B48FEF710FB00BF079A03990298B7
:103FB000FFF7ACFE069B012B02D0069B022B0FD114
:103FC000009B03F00803002B05D0012203990298FF
:103FD000FFF707FF04E0002203990298FFF701FFB3
:103FE000009B1B1103F003031A4603990298FFF785
:103FF0003CFFBDF906301846FFF730FF00BF09B09F
:104000005DF804FB28D7000858D70008E8D6000858
:104010006CD7000800B587B003460A46ADF80630F5
:1040200013468DF80530BDF90630B3F1FF3F04D1DA
:1040300088222E492E48FEF7C7FABDF906301B0923
:1040400003F00F030593BDF8063003F00F03294A70
:1040500052F823300493059800F0D8FC039004999B
:104060000398FFF77DFE0290029B012B02D0029B7A
:10407000022B16D19DF80530042B07D09DF8053092
:10408000032B03D09DF80530052B05D1012204999F
:104090000398FFF7A6FE04E0002204990398FFF7B7
:1040A000A0FE9DF80530032B03D09DF80530012BB1
:1040B00005D1012204990398FFF7D7FE12E09DF87D
:1040C0000530052B03D09DF80530022B05D10222C7
:1040D00004990398FFF7C9FE04E0002204990398AD
:1040E000FFF7C3FE00BF07B05DF804FB28D7000848
:1040F00058D70008E8D6000882B003468DF807308C
:104100009DF90730002B0CDB07499DF907305B094F
:104110009DF8072002F01F02012000FA02F241F888
:10412000232000BF02B0704700E100E084B00346E6
:1041300000918DF80730074B9B6803939DF907307A
:1041400010339B00039A1344009A1A6000BF04B016
:10415000704700BF00ED00E082B00190019B5B69F9
:1041600043F00202019B5A6100BF02B07047000099
:10417000014B1846704700BF70D7000808B50D4BBB
:104180000D4A1A600B4B1B681B6903F00203022BDC
:104190000DD1084B1B68DB6803F00203022B06D12C
:1041A000044B1B686FF002021A61FEF709F900BFA9
:1041B00008BD00BF18100020000C004000B589B0F9
:1041C00002AA03AB11461846FFF7FEF9FFF7D4F930
:1041D00003460293002301932D4A2D4B1B6C43F0A1
:1041E000080313642A4B1B6C03F008030193019B23
:1041F000274A274B1B6A43F008031362244A244BC7
:104200001B6A23F008031362224B234A1A60214BD6
:104210004FF0FF32DA60069B002B0AD1029B1F4A47
:10422000A2FB03239B0C9BB2013B1A46194B5A601D
:104230000AE0029B5B00194AA2FB03239B0C9BB282
:10424000013B1A46134B5A60124B00221A61114B64
:1042500000229A600F4B00225A610E4800F0B6FA15
:104260000F4B19463220FFF761FF3220FFF744FF62
:104270000021084800F0DAFA064B1B68054A12686C
:10428000D26822F00202DA6000BF09B05DF804FBD8
:104290000038024018100020000C004083DE1B4351
:1042A0007D410008044B1B68034A1268D26822F063
:1042B0000202DA6000BF704718100020014B5B6AF1
:1042C00018467047000C004082B00190094B1B68F3
:1042D000019A5A63074B1B686FF002021A61054B83
:1042E0001B68044A1268D26842F00202DA6000BF1A
:1042F00002B070471810002008B50A4B1B686FF019
:1043000002021A61074B1B681846FFF725FF054B91
:104310001B68044A1268D26842F00202DA6000BFE9
:1043200008BD00BF18100020044B1B68034A126828
:10433000D26822F00202DA6000BF70471810002035
:10434000034B1B686FF002021A6100BF704700BF89
:104350001810002082B0EFF310830193019B03F04B
:104360000103002B0CBF01230023DBB2184602B06F
:104370007047000000B583B0FFF7ECFF03468DF8EF
:10438000073072B6084B1B78DBB2002B07D1074A07
:104390009DF807301370044B01221A7000E000BF33
:1043A00003B05DF804FB00BFED0D0020EC0D002014
:1043B00008B5FFF7CFFF0346002B04D0362207498C
:1043C0000748FEF701F9074B00221A70064B1B78CD
:1043D000DBB2002B00D062B600BF08BD78D7000862
:1043E000ACD70008ED0D0020EC0D002082B001904C
:1043F0000091009B002B05D0019B9B68019A1268DD
:104400001A6005E0019BDB68019A126812041A60C9
:1044100000BF02B0704700B585B0039001930B4612
:10442000ADF80A3013468DF80930BDF90A30194647
:10443000039800F0ABFBBDF90A30B3F1FF3F0DD09C
:1044400001990398FFF7D2FF0121039800F0F7FBD1
:104450009DF809301946039800F0DEFB00BF05B057
:104460005DF804FB00B583B001900B46ADF8023057
:10447000BDF9023000221946019800F004F800BF8F
:1044800003B05DF804FB00B585B003900B460192C4
:10449000ADF80A30BDF90A10019B00220398FFF71E
:1044A000BAFF00BF05B05DF804FB000000B583B0A3
:1044B000FEF754F90D4B1B884FF6FF7293420BD158
:1044C000FEF766F9094B1B881A4600230093002368
:1044D00007490848FEF754FA01210448FEF76EF92F
:1044E000FEF756F900BF03B05DF804FBEE0D0020A7
:1044F000C8D700082301048000B583B0FEF72EF969
:104500000C4B1B88002B0BD1FEF742F9094B1B8883
:104510001A4600230093002307490848FEF730FAA3
:1045200001210448FEF770F9FEF732F900BF03B02D
:104530005DF804FBEE0D0020F0D700082401048094
:1045400000B585B00390029113468DF807300398AB
:1045500000F0E3F8164A039B1A60039B00225A609E
:10456000039B029A9A60039B9DF807201A731148D7
:10457000FCF724FE03461846FBF7A4FE029B002B23
:1045800007D00D4B1A68039B5A600B4A039B1360BC
:1045900002E0039B00225A600648FCF70FFE034628
:1045A0001846FBF794FE039B184605B05DF804FB24
:1045B00018D80008F40D0020F00D002000B585B0DB
:1045C0000190234A019B1A602248FCF7F7FD03463D
:1045D0001846FBF777FE019B9B68002B19D01E4BFA
:1045E0001A68019B9A4204D1019B5B681A4A1360C6
:1045F0000FE0194B1B680393039B5A68019B9A4277
:1046000003D0039B5B680393F6E7019B5A68039B07
:104610005A601048FCF7D2FD03461846FBF757FED8
:10462000019800F073F80346002B0CBF0123002310
:10463000DBB2002B04D0019B043B1846FBF7F2FED3
:10464000019800F070F8019B184605B05DF804FB76
:1046500018D80008F40D0020F00D002000B583B03C
:1046600001900198FFF7AAFF0198FCF78BFD019BD1
:10467000184603B05DF804FB00B585B001900091C9
:104680002048FCF79BFD03461846FBF71BFE1E4B1C
:104690001B680393039B002B28D0039B9B68002B74
:1046A00014D0039B9B68009A0199184602F096F873
:1046B0000346002B0AD1039B9B68184602F020F8A2
:1046C0000246009B9A4201D1012300E00023002B07
:1046D00008D00C48FCF772FD03461846FBF7F7FDBF
:1046E000039B0BE0039B5B680393D3E70548FCF750
:1046F00065FD03461846FBF7EAFD0023184605B0A2
:104700005DF804FBF40D0020F00D002082B0019054
:10471000019B1B7B184602B0704782B00190019B41
:10472000184602B0704782B00190019B184602B053
:104730007047000008B50E4A0D4B1B6843F4007328
:1047400013600B4A0A4B1B6843F480631360084AEA
:10475000074B1B6843F480731360032000F02CF8B0
:104760000F20FFF741FA00F005F80023184608BDB6
:10477000003C024000BF704784B00190019B03F0F1
:10478000070303930B4BDB680293029A4FF6FF0378
:1047900013400293039B1A02029B134343F0BF632F
:1047A00043F400330293034A029BD36000BF04B07A
:1047B000704700BF00ED00E000B583B001900198A4
:1047C000FFF7DAFF00BF03B05DF804FB00B583B06C
:1047D0000190019B002B01D101231DE0019B93F867
:1047E0003930DBB2002B06D1019B002283F8382040
:1047F000019800F015F8019B022283F83920019BF3
:104800001A68019B04331946104600F037F8019BE3
:10481000012283F839200023184603B05DF804FB19
:1048200082B0019000BF02B07047000000B583B0B5
:1048300001900091019B1B6801220099184600F02D
:104840009DF8019B1B680C4A934207D1019B1B6892
:10485000019A1268526C42F400425A64019B1B6830
:10486000019A1268126842F001021A600023184689
:1048700003B05DF804FB00BF0000014084B001906C
:10488000009100230393019B1B680393019B344A0F
:1048900093420FD0019BB3F1804F0BD0019B314A63
:1048A000934207D0019B304A934203D0019B2F4A89
:1048B000934201D1012300E00023002B08D0039B89
:1048C00023F070030393009B5B68039A13430393E5
:1048D000019B234A93421BD0019BB3F1804F17D019
:1048E000019B204A934213D0019B1F4A93420FD051
:1048F000019B1E4A93420BD0019B1D4A934207D055
:10490000019B1C4A934203D0019B1B4A934201D155
:10491000012300E00023002B08D0039B23F4407305
:104920000393009BDB68039A13430393019B039A51
:104930001A60009B9A68019BDA62009B1A68019BCF
:104940009A62019B064A934203D1009B1A69019B1C
:104950001A63019B01225A6100BF04B0704700BF77
:10496000000001400004004000080040000C00402E
:1049700000400140004401400048014086B00390DF
:1049800002910192002305930122029B02FA03F394
:104990000593039B1A6A059BDB431A40039B1A622B
:1049A000039B1A6A0199029B01FA03F31A43039BC2
:1049B0001A6200BF06B0704788B00390029101925E
:1049C000039B1A68029B0593059B93FAA3F3049338
:1049D000049BB3FA83F3DBB25B00032101FA03F318
:1049E000DB431A40029B0793079B93FAA3F30693BA
:1049F000069BB3FA83F3DBB25B00019901FA03F380
:104A00001A43039B1A6000BF08B0704700B58BB013
:104A1000019000230993019B072B79D801A252F83A
:104A200023F000BF454A0008674A0008894A000889
:104A3000AB4A0008CD4A0008114B0008114B000892
:104A4000EF4A0008374B099300230893364A364B48
:104A50001B6B43F001031363334B1B6B03F0010328
:104A60000893089B58E0314B0993002307932E4A83
:104A70002D4B1B6B43F0020313632B4B1B6B03F09B
:104A800002030793079B47E0294B099300230693F2
:104A9000254A254B1B6B43F004031363224B1B6B0E
:104AA00003F004030693069B36E0224B0993002390
:104AB00005931D4A1C4B1B6B43F0080313631A4BF1
:104AC0001B6B03F008030593059B25E01A4B099324
:104AD00000230493144A144B1B6B43F0100313631D
:104AE000114B1B6B03F010030493049B14E0134B56
:104AF0000993002303930C4A0B4B1B6B43F0800379
:104B00001363094B1B6B03F080030393039B03E0C8
:104B10000B48FDF7B3FE00BF099B18460BB05DF8CC
:104B200004FB00BF000002400038024000040240C5
:104B300000080240000C024000100240001C02402D
:104B400020D8000800B583B00346ADF80630BDF9A3
:104B50000630B3F1FF3F04D176220A490A48FDF737
:104B600033FDBDF9063000211846FFF7C5F9BDF841
:104B7000063003F00F03012202FA03F3184603B0D4
:104B80005DF804FB44D8000874D8000800B585B06F
:104B900001900B46ADF80230019BBDF802201A824D
:104BA000BDF90230B3F1FF3F2FD0BDF902301B0930
:104BB00003F00F0303930398FFF728FF0290BDF95A
:104BC00002301846FFF7BEFF0246019B1A60019BA8
:104BD000029A5A61019BB3F910309BB203F00F03A4
:104BE0000C4A52F82320019B9A61029B03F11002A8
:104BF000019B5A60029B03F11802019B9A60029B81
:104C000003F11802019BDA6000E000BF05B05DF817
:104C100004FB00BFE8D6000800B583B001900B4646
:104C20008DF80330019BB3F910309DF80320114635
:104C30001846FFF7EFF900BF03B05DF804FB00B5BD
:104C400083B001900B468DF803309DF80330002BA4
:104C500008D1019B5869019B9B6900221946FFF707
:104C6000ABFE07E0019B5869019B9B690122194635
:104C7000FFF7A2FE00BF03B05DF804FB014B18680C
:104C8000704700BFA8020020B1F90C309AB22DE99C
:104C9000F0410D46110780463AD46A6843F4006338
:104CA000002AAB816FDDAC6A002C49D000229BB298
:104CB000D8F80060C8F8002013F4805267D02A6D3D
:104CC0005F0705D569682B6B521A0BB1EB6BD21AD3
:104CD0000023E9694046A047441C3CD0B5F90C309C
:104CE0002A692A6023F400630022AB81DB046A6036
:104CF00047D4296BC8F8006011B305F1400399420D
:104D000002D0404600F026FA00202863BDE8F0817A
:104D10002E69AEB12C682E6091070CBF6B69002321
:104D2000A41BAB600AE0234632466F6AE96940463D
:104D3000B8470028A4EB0004064404DD002CF2DC94
:104D40000020BDE8F081AB8943F04003AB814FF018
:104D5000FF30BDE8F081D8F800401D2CF3D8194B86
:104D6000E340DB4313F00103EDD1B5F90C206B6098
:104D700022F400632969AB81DA042960B9D5002CDB
:104D8000B7D12865B5E7EA6B002A8CDCD8E70123A8
:104D9000E9694046A047431C024602D0AB89AC6A91
:104DA0008EE7D8F80030002BF8D01D2B01D0162B41
:104DB00002D1C8F80060C3E7AB8943F04003AB8180
:104DC000BDE8F0810100402038B50D46044608B129
:104DD000836BBBB1B5F90C0088B16B6EDB0701D4F6
:104DE000810517D520462946FFF74EFF6B6EDA077F
:104DF000044602D4AB899B0507D5204638BD04463E
:104E0000204638BD00F062F8E4E7A86D00F0B0FC81
:104E1000204638BDA86D00F0A9FCE3E720B1054BA2
:104E200001461868FFF7D0BF034B0449186800F02B
:104E300047BC00BFA802002088D80008C94D000860
:104E4000014900F03DBC00BFF58F000810B50023FC
:104E500004468181C28103604360836043660361CD
:104E600043618361194608225C3001F0ABF80748C2
:104E70000749084A084B2062E4616162A262E3626A
:104E800004F15800BDE8104000F06CBC79630008E4
:104E90009D630008D9630008F963000870B54A1ED5
:104EA000682505FB02F50E4605F1740100F0EAFCE9
:104EB000044640B100210C30666005F168022160B3
:104EC000A06001F07FF8204670BD00BF10B5044619
:104ED000124800F04BFCA26BD2B904F53B731048AA
:104EE000C4F8E8320321C4F8E022E063C4F8E41215
:104EF00060680421FFF7AAFF01220921A068FFF7DB
:104F0000A5FF02221221E068FFF7A0FF0123A3639F
:104F10000248BDE8104000F02BBC00BF6810002024
:104F2000414E000870B50646264800F01FFC264B8F
:104F30001D68AB6B002B33D005F538756B68AC681A
:104F4000013B05D528E0013B5A1C04F1680423D03D
:104F5000B4F90C20002AF6D100254FF6FF72012388
:104F6000E281A38104F15800656600F0FBFB15485F
:104F700000F0FEFB2560A560656025616561A561A7
:104F80002946082204F15C0001F01CF825636563E2
:104F90006564A564204670BD2C682CB12546CDE71C
:104FA0002846FFF793FFC7E704213046FFF776FF57
:104FB000044628600028F1D1024800F0D9FB0C23F8
:104FC0003360E7E77C10002088D80008014800F033
:104FD000CDBB00BF7C100020014800F0C9BB00BF62
:104FE0007C100020F0B5134683B00F4601AA194685
:104FF000064604F069F800282FD005463046FFF732
:1050000091FF0446002828D039464FF4DB73019AFB
:10501000304601F025F8071E30DB636EDB0715D53F
:105020001C491D481D4A1E4B6162E905E781A581A7
:10503000E4612062A262E36213D4636EDA0702D4F1
:10504000A3899B0514D5204603B0F0BDA38998051C
:10505000E6D4A06D00F08AFBE2E70024204603B00E
:10506000F0BD304602230022214600F059F9E4E762
:10507000A06D00F07DFB204603B0F0BD0025FFF7DA
:10508000A5FFA581A06D00F06FFB2C46FFF7A4FFE4
:10509000D9E700BF9D63000879630008D963000861
:1050A000F9630008024B0A4601461868FFF79ABFE9
:1050B000A8020020F8B5244F0C460646FBF7EFFF88
:1050C000BB685D68C4F57E610F3125F00305294496
:1050D00021F47F6121F00F01A1F58054B4F5805FC8
:1050E00007DB0021304601F065F8BB682B4498428D
:1050F00004D03046FBF7DDFF0020F8BD61423046AA
:1051000001F058F801300DD0104BBA6819682D1B0A
:1051100045F001053046091B55601960FBF7C9FFD2
:105120000120F8BD0021304601F044F8BA68831A26
:105130000F2BDEDD064C0549246843F00103001BFC
:1051400053600860D5E700BFD8060020FC0D0020A2
:10515000E00A0020002944D02DE9F0410D468046A8
:10516000FBF79DFF55F8047C694927F00103A5F181
:105170000804E2188E685068B24220F003005ED046
:10518000FE0750600BD455F8087CE41B01F1080EB3
:10519000A56875453B446DD0E768EF60BD601518A4
:1051A0006D68ED073ED543F001026260E350B3F550
:1051B000007F17D2DB08581C9A104D6851F83070E8
:1051C000A7600123934001EBC0022B43083AE26041
:1051D0004B6041F83040FC604046BDE8F041FBF7D1
:1051E00068BF70475A0A042A52D89A0902F139074F
:1051F000FF0002F13805C819CA59083890424FD04B
:10520000516821F003018B4232D292689042F7D16B
:10521000C368A060E3609C60C4604046BDE8F041A4
:10522000FBF747BF95683B4FBD42034440D0D06871
:10523000E86043F0010285606260E350B7E7FF0772
:10524000034407D455F8082CA41A1344A068E26854
:10525000C2609060304A126843F00100934260607F
:105260008C60B9D32D4B40461968FFF723FFB3E795
:105270001046CDE711184968C90744D49168D2682F
:10528000CA60034443F0010091606060E350A3E70B
:10529000142A16D802F15C07FF0002F15B05AAE7A9
:1052A000AA1001234D6893402B434B600346B0E79F
:1052B00043F001024C610C61E560A5606260E3505F
:1052C0008AE7542A06D81A0B02F16F07FF0002F191
:1052D0006E0590E7B2F5AA7F06D8DA0B02F17807DF
:1052E000FF0002F1770586E740F25450824206D86B
:1052F0009A0C02F17D07FF0002F17C057BE74FF479
:105300007E777E2577E743F001016160136063E7F4
:10531000D8060020E0060020E40A00202C0E002021
:1053200000F000B82DE9F04F0C4691B091461F46B1
:10533000064610B1836B002B67D0636E13F0010F2C
:10534000A38902D19D0540F1B28003F48473B3F5C3
:10535000847F00F0B680D4F82880B8F1000F00F008
:10536000BA80012F38D0022F0ED06FB1636E162293
:10537000D907326002D4A3899A0529D54FF0FF35A9
:10538000284611B0BDE8F08F4FF0000A236955465A
:10539000002B00F02D81B4F90C3040F61A019AB2BE
:1053A0000A4208D152053AD4A74A904500F0258117
:1053B00043F40063A38121463046FFF705FD002832
:1053C00000F09B80636ED907D8D4A3899A05D5D401
:1053D000A06D00F0CDF9D1E721463046FFF7F4FC8F
:1053E000A38913F4805200F0E180256D5F0779D422
:1053F000180740F1D380226823690AB1D21A1544F4
:10540000A9444FF0010A0027C2E7FFF75FFD94E7C8
:10541000A3894FF4806243F48063A381E264002F88
:1054200040F0CD80CB46BAF1000F40F0B980A3899F
:10543000DB0440F1F680206D6268216B851A964688
:10544000002900F0F980E36BED1A15442069A26B86
:10545000121AAD1A1344AB456CDBEA185A4569D9E8
:10546000ABEB050528445B1B84E8090041B104F15E
:105470004003994202D03046FFF76CFE00232363BD
:10548000A38923F02003A3810822002104F15C00FA
:1054900000F098FD656E15F0010503D1A3899B0509
:1054A00040F1A2800025284611B0BDE8F08FA06D24
:1054B00000F05CF9A38903F48473B3F5847F7FF46F
:1054C0004AAF21463046FFF77FFCD4F82880B8F178
:1054D000000F7FF446AF636E1D22D80732607FF560
:1054E0004AAF4BE7D4F804E0236BA5EB0E05002B85
:1054F00054D0E26B2369AD1A82E73B464A46E16924
:105500003046C04701303FF45DAF216B41B104F13B
:105510004003994202D03046FFF71CFE002323636C
:10552000A3892269226023F402630021A3816160C0
:105530000822ABE7E56CE1696D4205EA0B052A46F6
:1055400000233046C04701303FF435AF2369216B5B
:1055500023600023636041B104F14003994202D00B
:105560003046FFF7F7FD00232363A389BBEB050B50
:1055700023F02003A38187D02146304600F090FD20
:1055800000287FF418AF63689B453FF614AF22688C
:10559000A3EB0B035A4484E80C0075E723692FE75B
:1055A000216B002946D06268E36B4EE7E1693B4618
:1055B0003046C047411C05460ED0A38916E701AA14
:1055C000B4F90E10304600F041F800287FF4F3AE35
:1055D000059B09EB030B26E7636EDA073FF5CEAEBA
:1055E000A3899B053FF5CAAEA06D00F0C1F8C7E6E0
:1055F0002146304600F0ECF8CDE6B4F90E10002953
:10560000FFF6D6AE01AA304600F020F830B9029B72
:1056100003F47043B3F5004F3FF4FAAEB4F90C3025
:10562000C6E652460123E1693046C047451C7FF477
:1056300003AFC0E6D4F804E0236820691B1AED1A12
:105640000021734407E700BFD963000838B50B4653
:10565000074C05461146184600232360FBF755FC0E
:10566000431C00D038BD2368002BFBD02B6038BD15
:10567000801000202DE9F04110F538771BD08846C6
:1056800000267D68BC68013D0FD4A389012B05F17C
:10569000FF3506D9B4F90E300133204601D0C0479A
:1056A00006436B1C04F16804EFD13F68002FE8D17A
:1056B0003046BDE8F0813E463046BDE8F08100BF8F
:1056C0002DE9F84310F538771FD0884606464FF08D
:1056D00000097D68BC68013D11D4A389012B05F147
:1056E000FF3508D9B4F90E3001332146304602D0D7
:1056F000C04749EA00096B1C04F16804EDD13F681A
:10570000002FE6D14846BDE8F883B9464846BDE8D3
:10571000F88300BF70B50F4E0F4D761BB61018BF43
:10572000002405D0013455F8043B9847A642F9D12E
:105730000A4E0B4D761B07F025FCB61018BF00244F
:1057400006D0013455F8043B9847A642F9D170BD04
:1057500070BD00BF540C0020540C00205C0C0020D5
:10576000540C0020704700BF704700BF704700BF57
:10577000704700BF70B50C46B1F90E10002990B00B
:1057800015461E4614DB01AAFFF760FF00280FDB59
:10579000029A02F47042A2F50052B2FA82F2520961
:1057A0004FF480634FF4006032602B6010B070BD26
:1057B000A289002312F08000336004D040221846F2
:1057C0002A6010B070BD4FF480632B6010B070BDC4
:1057D0008A8992070B4606D501F1430201211A601E
:1057E0001A6159617047F0B583B001AB6A460C4647
:1057F0000646FFF7BFFF00990546304600F042F825
:10580000B4F90C30D8B1019A154F0099F76343F001
:105810008003A3812060206161611AB92B43A381B9
:1058200003B0F0BD3046B4F90E1003F087FCA0B110
:10583000A38923F0030343F001031BB2EEE79A05AB
:10584000EED423F0030304F1430243F002030121E9
:10585000A381226022616161E2E7B4F90C30DDE7E7
:10586000414E0008024B0146186800F00BB800BF1B
:10587000A8020020024B01461868FFF76BBC00BF6E
:10588000A80200202DE9F04F01F10B06162E83B07F
:10589000054640F29E8036F0070600F1BD80B14219
:1058A00000F2BA80FBF7FBFBB6F5FC7FC0F09382F9
:1058B000730A00F0B880042B00F27981B30903F178
:1058C000390003F1380EC300BF4F3B44A3F1080178
:1058D0005C68A14206D10CE0002A80F2AA80E4684C
:1058E000A14206D0636823F003039A1B0F2AF3DD5D
:1058F00070463C69DFF8E4E2744500F0AB81636810
:1059000023F003039A1B0F2A00F39081002AC7F8A3
:1059100014E0C7F810E080F29D80B3F5007F80F0BE
:105920006181DB0803F1010C99107A6857F83C801B
:10593000C4F8088001238B4007EBCC0113430839DE
:10594000E1607B6047F83C40C8F80C4082100124BD
:1059500094409C4200F28B801C4206D120F0030050
:1059600064001C4200F10400FAD007EBC009CC46E9
:105970008046DCF80C309C4507D16DE1002A80F2AE
:105980007B81DB689C4500F06781596821F0030149
:105990008A1B0F2AF2DDD3F80CC0D3F808800093DD
:1059A0009C19284646F0010642F001055E60C8F8E1
:1059B0000CC0CCF808807C613C61C4F80CE0C4F8F1
:1059C00008E065605A50FBF774FB009B03F1080484
:1059D0001EE0102920D8FBF762FB102618230220B6
:1059E000794F3B44A3F108025C68944200F03D818A
:1059F0006368E168A66823F00303234428465A68D5
:105A0000F16042F001028E605A60FBF752FB0834ED
:105A1000204603B0BDE8F08F00240C2320462B6005
:105A200003B0BDE8F08F40204FF400734FF03F0EFD
:105A30004AE72344E1685A68A66842F00102F1602F
:105A400028468E605A60FBF734FB0834204603B0CA
:105A5000BDE8F08F234428465A6842F001025A609C
:105A6000FBF727FB0834204603B0BDE8F08FBC6885
:105A7000636823F00308B04504D3A8EB06030F2B9B
:105A800000F38580DFF85891504BD9F800201B684F
:105A90000132334404EB080A00F0558103F58053CA
:105AA0000F3323F47F6B2BF00F0B5946284600F081
:105AB00081FB411C024600F0FC80824500F2F78029
:105AC000434B19685944196000F04D81D9F8000022
:105AD00001301BBFA2EB0A0A5144C9F8002019602B
